{
  "contractName": "Voting",
  "abi": [
    {
      "anonymous": false,
      "inputs": [
        {
          "indexed": true,
          "internalType": "address",
          "name": "previousOwner",
          "type": "address"
        },
        {
          "indexed": true,
          "internalType": "address",
          "name": "newOwner",
          "type": "address"
        }
      ],
      "name": "OwnershipTransferred",
      "type": "event"
    },
    {
      "anonymous": false,
      "inputs": [
        {
          "indexed": false,
          "internalType": "uint256",
          "name": "proposalId",
          "type": "uint256"
        }
      ],
      "name": "ProposalRegistered",
      "type": "event"
    },
    {
      "anonymous": false,
      "inputs": [
        {
          "indexed": false,
          "internalType": "address",
          "name": "voter",
          "type": "address"
        },
        {
          "indexed": false,
          "internalType": "uint256",
          "name": "proposalId",
          "type": "uint256"
        }
      ],
      "name": "Voted",
      "type": "event"
    },
    {
      "anonymous": false,
      "inputs": [
        {
          "indexed": false,
          "internalType": "address",
          "name": "voterAddress",
          "type": "address"
        }
      ],
      "name": "VoterRegistered",
      "type": "event"
    },
    {
      "anonymous": false,
      "inputs": [
        {
          "indexed": false,
          "internalType": "enum Voting.WorkflowStatus",
          "name": "previousStatus",
          "type": "uint8"
        },
        {
          "indexed": false,
          "internalType": "enum Voting.WorkflowStatus",
          "name": "newStatus",
          "type": "uint8"
        }
      ],
      "name": "WorkflowStatusChange",
      "type": "event"
    },
    {
      "inputs": [],
      "name": "owner",
      "outputs": [
        {
          "internalType": "address",
          "name": "",
          "type": "address"
        }
      ],
      "stateMutability": "view",
      "type": "function",
      "constant": true
    },
    {
      "inputs": [
        {
          "internalType": "uint256",
          "name": "",
          "type": "uint256"
        }
      ],
      "name": "proposalsArray",
      "outputs": [
        {
          "internalType": "string",
          "name": "description",
          "type": "string"
        },
        {
          "internalType": "uint256",
          "name": "voteCount",
          "type": "uint256"
        }
      ],
      "stateMutability": "view",
      "type": "function",
      "constant": true
    },
    {
      "inputs": [],
      "name": "renounceOwnership",
      "outputs": [],
      "stateMutability": "nonpayable",
      "type": "function"
    },
    {
      "inputs": [
        {
          "internalType": "address",
          "name": "newOwner",
          "type": "address"
        }
      ],
      "name": "transferOwnership",
      "outputs": [],
      "stateMutability": "nonpayable",
      "type": "function"
    },
    {
      "inputs": [],
      "name": "winningProposalID",
      "outputs": [
        {
          "internalType": "uint256",
          "name": "",
          "type": "uint256"
        }
      ],
      "stateMutability": "view",
      "type": "function",
      "constant": true
    },
    {
      "inputs": [],
      "name": "workflowStatus",
      "outputs": [
        {
          "internalType": "enum Voting.WorkflowStatus",
          "name": "",
          "type": "uint8"
        }
      ],
      "stateMutability": "view",
      "type": "function",
      "constant": true
    },
    {
      "inputs": [
        {
          "internalType": "address",
          "name": "_addr",
          "type": "address"
        }
      ],
      "name": "getVoter",
      "outputs": [
        {
          "components": [
            {
              "internalType": "bool",
              "name": "isRegistered",
              "type": "bool"
            },
            {
              "internalType": "bool",
              "name": "hasVoted",
              "type": "bool"
            },
            {
              "internalType": "uint256",
              "name": "votedProposalId",
              "type": "uint256"
            },
            {
              "internalType": "uint256",
              "name": "proposedProposalCount",
              "type": "uint256"
            }
          ],
          "internalType": "struct Voting.Voter",
          "name": "",
          "type": "tuple"
        }
      ],
      "stateMutability": "view",
      "type": "function",
      "constant": true
    },
    {
      "inputs": [
        {
          "internalType": "uint256",
          "name": "_id",
          "type": "uint256"
        }
      ],
      "name": "getOneProposal",
      "outputs": [
        {
          "components": [
            {
              "internalType": "string",
              "name": "description",
              "type": "string"
            },
            {
              "internalType": "uint256",
              "name": "voteCount",
              "type": "uint256"
            }
          ],
          "internalType": "struct Voting.Proposal",
          "name": "",
          "type": "tuple"
        }
      ],
      "stateMutability": "view",
      "type": "function",
      "constant": true
    },
    {
      "inputs": [],
      "name": "getWinner",
      "outputs": [
        {
          "components": [
            {
              "internalType": "string",
              "name": "description",
              "type": "string"
            },
            {
              "internalType": "uint256",
              "name": "voteCount",
              "type": "uint256"
            }
          ],
          "internalType": "struct Voting.Proposal[]",
          "name": "",
          "type": "tuple[]"
        }
      ],
      "stateMutability": "view",
      "type": "function",
      "constant": true
    },
    {
      "inputs": [
        {
          "internalType": "address",
          "name": "_addr",
          "type": "address"
        }
      ],
      "name": "addVoter",
      "outputs": [],
      "stateMutability": "nonpayable",
      "type": "function"
    },
    {
      "inputs": [
        {
          "internalType": "string",
          "name": "_desc",
          "type": "string"
        }
      ],
      "name": "addProposal",
      "outputs": [],
      "stateMutability": "nonpayable",
      "type": "function"
    },
    {
      "inputs": [
        {
          "internalType": "uint256",
          "name": "_id",
          "type": "uint256"
        }
      ],
      "name": "setVote",
      "outputs": [],
      "stateMutability": "nonpayable",
      "type": "function"
    },
    {
      "inputs": [],
      "name": "startProposalsRegistering",
      "outputs": [],
      "stateMutability": "nonpayable",
      "type": "function"
    },
    {
      "inputs": [],
      "name": "endProposalsRegistering",
      "outputs": [],
      "stateMutability": "nonpayable",
      "type": "function"
    },
    {
      "inputs": [],
      "name": "startVotingSession",
      "outputs": [],
      "stateMutability": "nonpayable",
      "type": "function"
    },
    {
      "inputs": [],
      "name": "endVotingSession",
      "outputs": [],
      "stateMutability": "nonpayable",
      "type": "function"
    },
    {
      "inputs": [],
      "name": "tallyVotesDraw",
      "outputs": [],
      "stateMutability": "nonpayable",
      "type": "function"
    }
  ],
  "bytecode": "0x60806040523480156200001157600080fd5b5062000032620000266200003860201b60201c565b6200004060201b60201c565b62000104565b600033905090565b60008060009054906101000a900473ffffffffffffffffffffffffffffffffffffffff169050816000806101000a81548173ffffffffffffffffffffffffffffffffffffffff021916908373ffffffffffffffffffffffffffffffffffffffff1602179055508173ffffffffffffffffffffffffffffffffffffffff168173ffffffffffffffffffffffffffffffffffffffff167f8be0079c531659141344cd1fd0a4f28419497f9722a3daafe3b4186f6b6457e060405160405180910390a35050565b612e7d80620001146000396000f3fe608060405234801561001057600080fd5b506004361061010b5760003560e01c8063a7bfab16116100a2578063d4f50f9811610071578063d4f50f9814610222578063ee74c67814610252578063f2fde38b1461025c578063f4ab9adf14610278578063f86c6779146102945761010b565b8063a7bfab16146101e6578063bdc01431146101f0578063c7038a4e1461020e578063c88af42f146102185761010b565b80638da5cb5b116100de5780638da5cb5b1461015c5780638e7ea5b21461017a578063a1edffa214610198578063a2788cce146101b65761010b565b8063230796ae146101105780632fdae3c51461012c5780633beee92e14610148578063715018a614610152575b600080fd5b61012a60048036038101906101259190611d3c565b6102c5565b005b61014660048036038101906101419190611eaf565b6105c1565b005b6101506108e2565b005b61015a610c84565b005b610164610d0c565b6040516101719190611f39565b60405180910390f35b610182610d35565b60405161018f91906120ea565b60405180910390f35b6101a0610ea5565b6040516101ad9190612183565b60405180910390f35b6101d060048036038101906101cb9190611d3c565b610eb8565b6040516101dd91906121db565b60405180910390f35b6101ee61101f565b005b6101f8611178565b604051610205919061220c565b60405180910390f35b61021661117e565b005b6102206112d8565b005b61023c60048036038101906102379190612253565b611432565b60405161024991906122f0565b60405180910390f35b61025a611564565b005b61027660048036038101906102719190612253565b6116be565b005b610292600480360381019061028d9190612253565b6117b5565b005b6102ae60048036038101906102a99190611d3c565b6119d2565b6040516102bc929190612355565b60405180910390f35b600660003373ffffffffffffffffffffffffffffffffffffffff1673ffffffffffffffffffffffffffffffffffffffff16815260200190815260200160002060000160009054906101000a900460ff16610354576040517f08c379a000000000000000000000000000000000000000000000000000000000815260040161034b906123d1565b60405180910390fd5b600360058111156103685761036761210c565b5b600460009054906101000a900460ff16600581111561038a5761038961210c565b5b146103ca576040517f08c379a00000000000000000000000000000000000000000000000000000000081526004016103c190612463565b60405180910390fd5b60011515600660003373ffffffffffffffffffffffffffffffffffffffff1673ffffffffffffffffffffffffffffffffffffffff16815260200190815260200160002060000160019054906101000a900460ff16151503610460576040517f08c379a0000000000000000000000000000000000000000000000000000000008152600401610457906124cf565b60405180910390fd5b6005805490508111156104a8576040517f08c379a000000000000000000000000000000000000000000000000000000000815260040161049f9061253b565b60405180910390fd5b80600660003373ffffffffffffffffffffffffffffffffffffffff1673ffffffffffffffffffffffffffffffffffffffff168152602001908152602001600020600101819055506001600660003373ffffffffffffffffffffffffffffffffffffffff1673ffffffffffffffffffffffffffffffffffffffff16815260200190815260200160002060000160016101000a81548160ff0219169083151502179055506005818154811061055e5761055d61255b565b5b90600052602060002090600202016001016000815480929190610580906125b9565b91905055507f4d99b957a2bc29a30ebd96a7be8e68fe50a3c701db28a91436490b7d53870ca433826040516105b6929190612601565b60405180910390a150565b600660003373ffffffffffffffffffffffffffffffffffffffff1673ffffffffffffffffffffffffffffffffffffffff16815260200190815260200160002060000160009054906101000a900460ff16610650576040517f08c379a0000000000000000000000000000000000000000000000000000000008152600401610647906123d1565b60405180910390fd5b600160058111156106645761066361210c565b5b600460009054906101000a900460ff1660058111156106865761068561210c565b5b146106c6576040517f08c379a00000000000000000000000000000000000000000000000000000000081526004016106bd90612676565b60405180910390fd5b6040516020016106d5906126bc565b60405160208183030381529060405280519060200120816040516020016106fc91906126dc565b6040516020818303038152906040528051906020012003610752576040517f08c379a000000000000000000000000000000000000000000000000000000000815260040161074990612770565b60405180910390fd5b6005600660003373ffffffffffffffffffffffffffffffffffffffff1673ffffffffffffffffffffffffffffffffffffffff1681526020019081526020016000206002015411156107d8576040517f08c379a00000000000000000000000000000000000000000000000000000000081526004016107cf90612802565b60405180910390fd5b6107e0611b5a565b81816000018190525060058190806001815401808255809150506001900390600052602060002090600202016000909190919091506000820151816000019080519060200190610831929190611b74565b50602082015181600101555050600660003373ffffffffffffffffffffffffffffffffffffffff1673ffffffffffffffffffffffffffffffffffffffff1681526020019081526020016000206002016000815480929190610891906125b9565b91905055507f92e393e9b54e2f801d3ea4beb0c5e71a21cc34a5d34b77d0fb8a3aa1650dc18f60016005805490506108c99190612822565b6040516108d6919061220c565b60405180910390a15050565b6108ea611a8e565b73ffffffffffffffffffffffffffffffffffffffff16610908610d0c565b73ffffffffffffffffffffffffffffffffffffffff161461095e576040517f08c379a0000000000000000000000000000000000000000000000000000000008152600401610955906128a2565b60405180910390fd5b600460058111156109725761097161210c565b5b600460009054906101000a900460ff1660058111156109945761099361210c565b5b146109d4576040517f08c379a00000000000000000000000000000000000000000000000000000000081526004016109cb90612934565b60405180910390fd5b612ee060058054905010610a1d576040517f08c379a0000000000000000000000000000000000000000000000000000000008152600401610a14906129ec565b60405180910390fd5b6000610a27611bfa565b600080600090505b600580549050811015610b29578360058281548110610a5157610a5061255b565b5b90600052602060002090600202016001015403610a945780838360058110610a7c57610a7b61255b565b5b6020020181815250508180610a90906125b9565b9250505b8360058281548110610aa957610aa861255b565b5b9060005260206000209060020201600101541115610b1657610ac9611bfa565b92508083600060058110610ae057610adf61255b565b5b60200201818152505060058181548110610afd57610afc61255b565b5b9060005260206000209060020201600101549350600191505b8080610b21906125b9565b915050610a2f565b5060005b81811015610c18576001838260058110610b4a57610b4961255b565b5b6020020151908060018154018082558091505060019003906000526020600020016000909190919091505560026005848360058110610b8c57610b8b61255b565b5b602002015181548110610ba257610ba161255b565b5b906000526020600020906002020190806001815401808255809150506001900390600052602060002090600202016000909190919091506000820181600001908054610bed90612a3b565b610bf8929190611c1c565b506001820154816001015550508080610c10906125b9565b915050610b2d565b506005600460006101000a81548160ff02191690836005811115610c3f57610c3e61210c565b5b02179055507f0a97a4ee45751e2abf3e4fc8946939630b11b371ea8ae39ccdc3056e98f5cc3f60046005604051610c77929190612a6c565b60405180910390a1505050565b610c8c611a8e565b73ffffffffffffffffffffffffffffffffffffffff16610caa610d0c565b73ffffffffffffffffffffffffffffffffffffffff1614610d00576040517f08c379a0000000000000000000000000000000000000000000000000000000008152600401610cf7906128a2565b60405180910390fd5b610d0a6000611a96565b565b60008060009054906101000a900473ffffffffffffffffffffffffffffffffffffffff16905090565b6060600580811115610d4a57610d4961210c565b5b600460009054906101000a900460ff166005811115610d6c57610d6b61210c565b5b14610dac576040517f08c379a0000000000000000000000000000000000000000000000000000000008152600401610da390612ae1565b60405180910390fd5b6002805480602002602001604051908101604052809291908181526020016000905b82821015610e9c5783829060005260206000209060020201604051806040016040529081600082018054610e0190612a3b565b80601f0160208091040260200160405190810160405280929190818152602001828054610e2d90612a3b565b8015610e7a5780601f10610e4f57610100808354040283529160200191610e7a565b820191906000526020600020905b815481529060010190602001808311610e5d57829003601f168201915b5050505050815260200160018201548152505081526020019060010190610dce565b50505050905090565b600460009054906101000a900460ff1681565b610ec0611b5a565b600660003373ffffffffffffffffffffffffffffffffffffffff1673ffffffffffffffffffffffffffffffffffffffff16815260200190815260200160002060000160009054906101000a900460ff16610f4f576040517f08c379a0000000000000000000000000000000000000000000000000000000008152600401610f46906123d1565b60405180910390fd5b60058281548110610f6357610f6261255b565b5b9060005260206000209060020201604051806040016040529081600082018054610f8c90612a3b565b80601f0160208091040260200160405190810160405280929190818152602001828054610fb890612a3b565b80156110055780601f10610fda57610100808354040283529160200191611005565b820191906000526020600020905b815481529060010190602001808311610fe857829003601f168201915b505050505081526020016001820154815250509050919050565b611027611a8e565b73ffffffffffffffffffffffffffffffffffffffff16611045610d0c565b73ffffffffffffffffffffffffffffffffffffffff161461109b576040517f08c379a0000000000000000000000000000000000000000000000000000000008152600401611092906128a2565b60405180910390fd5b600360058111156110af576110ae61210c565b5b600460009054906101000a900460ff1660058111156110d1576110d061210c565b5b14611111576040517f08c379a000000000000000000000000000000000000000000000000000000000815260040161110890612463565b60405180910390fd5b60048060006101000a81548160ff021916908360058111156111365761113561210c565b5b02179055507f0a97a4ee45751e2abf3e4fc8946939630b11b371ea8ae39ccdc3056e98f5cc3f6003600460405161116e929190612a6c565b60405180910390a1565b60035481565b611186611a8e565b73ffffffffffffffffffffffffffffffffffffffff166111a4610d0c565b73ffffffffffffffffffffffffffffffffffffffff16146111fa576040517f08c379a00000000000000000000000000000000000000000000000000000000081526004016111f1906128a2565b60405180910390fd5b6000600581111561120e5761120d61210c565b5b600460009054906101000a900460ff1660058111156112305761122f61210c565b5b14611270576040517f08c379a000000000000000000000000000000000000000000000000000000000815260040161126790612b73565b60405180910390fd5b6001600460006101000a81548160ff021916908360058111156112965761129561210c565b5b02179055507f0a97a4ee45751e2abf3e4fc8946939630b11b371ea8ae39ccdc3056e98f5cc3f600060016040516112ce929190612a6c565b60405180910390a1565b6112e0611a8e565b73ffffffffffffffffffffffffffffffffffffffff166112fe610d0c565b73ffffffffffffffffffffffffffffffffffffffff1614611354576040517f08c379a000000000000000000000000000000000000000000000000000000000815260040161134b906128a2565b60405180910390fd5b600160058111156113685761136761210c565b5b600460009054906101000a900460ff16600581111561138a5761138961210c565b5b146113ca576040517f08c379a00000000000000000000000000000000000000000000000000000000081526004016113c190612c05565b60405180910390fd5b6002600460006101000a81548160ff021916908360058111156113f0576113ef61210c565b5b02179055507f0a97a4ee45751e2abf3e4fc8946939630b11b371ea8ae39ccdc3056e98f5cc3f60016002604051611428929190612a6c565b60405180910390a1565b61143a611ca9565b600660003373ffffffffffffffffffffffffffffffffffffffff1673ffffffffffffffffffffffffffffffffffffffff16815260200190815260200160002060000160009054906101000a900460ff166114c9576040517f08c379a00000000000000000000000000000000000000000000000000000000081526004016114c0906123d1565b60405180910390fd5b600660008373ffffffffffffffffffffffffffffffffffffffff1673ffffffffffffffffffffffffffffffffffffffff1681526020019081526020016000206040518060800160405290816000820160009054906101000a900460ff161515151581526020016000820160019054906101000a900460ff16151515158152602001600182015481526020016002820154815250509050919050565b61156c611a8e565b73ffffffffffffffffffffffffffffffffffffffff1661158a610d0c565b73ffffffffffffffffffffffffffffffffffffffff16146115e0576040517f08c379a00000000000000000000000000000000000000000000000000000000081526004016115d7906128a2565b60405180910390fd5b600260058111156115f4576115f361210c565b5b600460009054906101000a900460ff1660058111156116165761161561210c565b5b14611656576040517f08c379a000000000000000000000000000000000000000000000000000000000815260040161164d90612c97565b60405180910390fd5b6003600460006101000a81548160ff0219169083600581111561167c5761167b61210c565b5b02179055507f0a97a4ee45751e2abf3e4fc8946939630b11b371ea8ae39ccdc3056e98f5cc3f600260036040516116b4929190612a6c565b60405180910390a1565b6116c6611a8e565b73ffffffffffffffffffffffffffffffffffffffff166116e4610d0c565b73ffffffffffffffffffffffffffffffffffffffff161461173a576040517f08c379a0000000000000000000000000000000000000000000000000000000008152600401611731906128a2565b60405180910390fd5b600073ffffffffffffffffffffffffffffffffffffffff168173ffffffffffffffffffffffffffffffffffffffff16036117a9576040517f08c379a00000000000000000000000000000000000000000000000000000000081526004016117a090612d29565b60405180910390fd5b6117b281611a96565b50565b6117bd611a8e565b73ffffffffffffffffffffffffffffffffffffffff166117db610d0c565b73ffffffffffffffffffffffffffffffffffffffff1614611831576040517f08c379a0000000000000000000000000000000000000000000000000000000008152600401611828906128a2565b60405180910390fd5b600060058111156118455761184461210c565b5b600460009054906101000a900460ff1660058111156118675761186661210c565b5b146118a7576040517f08c379a000000000000000000000000000000000000000000000000000000000815260040161189e90612dbb565b60405180910390fd5b60011515600660008373ffffffffffffffffffffffffffffffffffffffff1673ffffffffffffffffffffffffffffffffffffffff16815260200190815260200160002060000160009054906101000a900460ff1615150361193d576040517f08c379a000000000000000000000000000000000000000000000000000000000815260040161193490612e27565b60405180910390fd5b6001600660008373ffffffffffffffffffffffffffffffffffffffff1673ffffffffffffffffffffffffffffffffffffffff16815260200190815260200160002060000160006101000a81548160ff0219169083151502179055507fb6be2187d059cc2a55fe29e0e503b566e1e0f8c8780096e185429350acffd3dd816040516119c79190611f39565b60405180910390a150565b600581815481106119e257600080fd5b9060005260206000209060020201600091509050806000018054611a0590612a3b565b80601f0160208091040260200160405190810160405280929190818152602001828054611a3190612a3b565b8015611a7e5780601f10611a5357610100808354040283529160200191611a7e565b820191906000526020600020905b815481529060010190602001808311611a6157829003601f168201915b5050505050908060010154905082565b600033905090565b60008060009054906101000a900473ffffffffffffffffffffffffffffffffffffffff169050816000806101000a81548173ffffffffffffffffffffffffffffffffffffffff021916908373ffffffffffffffffffffffffffffffffffffffff1602179055508173ffffffffffffffffffffffffffffffffffffffff168173ffffffffffffffffffffffffffffffffffffffff167f8be0079c531659141344cd1fd0a4f28419497f9722a3daafe3b4186f6b6457e060405160405180910390a35050565b604051806040016040528060608152602001600081525090565b828054611b8090612a3b565b90600052602060002090601f016020900481019282611ba25760008555611be9565b82601f10611bbb57805160ff1916838001178555611be9565b82800160010185558215611be9579182015b82811115611be8578251825591602001919060010190611bcd565b5b509050611bf69190611cd5565b5090565b6040518060a00160405280600590602082028036833780820191505090505090565b828054611c2890612a3b565b90600052602060002090601f016020900481019282611c4a5760008555611c98565b82601f10611c5b5780548555611c98565b82800160010185558215611c9857600052602060002091601f016020900482015b82811115611c97578254825591600101919060010190611c7c565b5b509050611ca59190611cd5565b5090565b604051806080016040528060001515815260200160001515815260200160008152602001600081525090565b5b80821115611cee576000816000905550600101611cd6565b5090565b6000604051905090565b600080fd5b600080fd5b6000819050919050565b611d1981611d06565b8114611d2457600080fd5b50565b600081359050611d3681611d10565b92915050565b600060208284031215611d5257611d51611cfc565b5b6000611d6084828501611d27565b91505092915050565b600080fd5b600080fd5b6000601f19601f8301169050919050565b7f4e487b7100000000000000000000000000000000000000000000000000000000600052604160045260246000fd5b611dbc82611d73565b810181811067ffffffffffffffff82111715611ddb57611dda611d84565b5b80604052505050565b6000611dee611cf2565b9050611dfa8282611db3565b919050565b600067ffffffffffffffff821115611e1a57611e19611d84565b5b611e2382611d73565b9050602081019050919050565b82818337600083830152505050565b6000611e52611e4d84611dff565b611de4565b905082815260208101848484011115611e6e57611e6d611d6e565b5b611e79848285611e30565b509392505050565b600082601f830112611e9657611e95611d69565b5b8135611ea6848260208601611e3f565b91505092915050565b600060208284031215611ec557611ec4611cfc565b5b600082013567ffffffffffffffff811115611ee357611ee2611d01565b5b611eef84828501611e81565b91505092915050565b600073ffffffffffffffffffffffffffffffffffffffff82169050919050565b6000611f2382611ef8565b9050919050565b611f3381611f18565b82525050565b6000602082019050611f4e6000830184611f2a565b92915050565b600081519050919050565b600082825260208201905092915050565b6000819050602082019050919050565b600081519050919050565b600082825260208201905092915050565b60005b83811015611fba578082015181840152602081019050611f9f565b83811115611fc9576000848401525b50505050565b6000611fda82611f80565b611fe48185611f8b565b9350611ff4818560208601611f9c565b611ffd81611d73565b840191505092915050565b61201181611d06565b82525050565b600060408301600083015184820360008601526120348282611fcf565b91505060208301516120496020860182612008565b508091505092915050565b60006120608383612017565b905092915050565b6000602082019050919050565b600061208082611f54565b61208a8185611f5f565b93508360208202850161209c85611f70565b8060005b858110156120d857848403895281516120b98582612054565b94506120c483612068565b925060208a019950506001810190506120a0565b50829750879550505050505092915050565b600060208201905081810360008301526121048184612075565b905092915050565b7f4e487b7100000000000000000000000000000000000000000000000000000000600052602160045260246000fd5b6006811061214c5761214b61210c565b5b50565b600081905061215d8261213b565b919050565b600061216d8261214f565b9050919050565b61217d81612162565b82525050565b60006020820190506121986000830184612174565b92915050565b600060408301600083015184820360008601526121bb8282611fcf565b91505060208301516121d06020860182612008565b508091505092915050565b600060208201905081810360008301526121f5818461219e565b905092915050565b61220681611d06565b82525050565b600060208201905061222160008301846121fd565b92915050565b61223081611f18565b811461223b57600080fd5b50565b60008135905061224d81612227565b92915050565b60006020828403121561226957612268611cfc565b5b60006122778482850161223e565b91505092915050565b60008115159050919050565b61229581612280565b82525050565b6080820160008201516122b1600085018261228c565b5060208201516122c4602085018261228c565b5060408201516122d76040850182612008565b5060608201516122ea6060850182612008565b50505050565b6000608082019050612305600083018461229b565b92915050565b600082825260208201905092915050565b600061232782611f80565b612331818561230b565b9350612341818560208601611f9c565b61234a81611d73565b840191505092915050565b6000604082019050818103600083015261236f818561231c565b905061237e60208301846121fd565b9392505050565b7f596f75277265206e6f74206120766f7465720000000000000000000000000000600082015250565b60006123bb60128361230b565b91506123c682612385565b602082019050919050565b600060208201905081810360008301526123ea816123ae565b9050919050565b7f566f74696e672073657373696f6e20686176656e74207374617274656420796560008201527f7400000000000000000000000000000000000000000000000000000000000000602082015250565b600061244d60218361230b565b9150612458826123f1565b604082019050919050565b6000602082019050818103600083015261247c81612440565b9050919050565b7f596f75206861766520616c726561647920766f74656400000000000000000000600082015250565b60006124b960168361230b565b91506124c482612483565b602082019050919050565b600060208201905081810360008301526124e8816124ac565b9050919050565b7f50726f706f73616c206e6f7420666f756e640000000000000000000000000000600082015250565b600061252560128361230b565b9150612530826124ef565b602082019050919050565b6000602082019050818103600083015261255481612518565b9050919050565b7f4e487b7100000000000000000000000000000000000000000000000000000000600052603260045260246000fd5b7f4e487b7100000000000000000000000000000000000000000000000000000000600052601160045260246000fd5b60006125c482611d06565b91507fffffffffffffffffffffffffffffffffffffffffffffffffffffffffffffffff82036125f6576125f561258a565b5b600182019050919050565b60006040820190506126166000830185611f2a565b61262360208301846121fd565b9392505050565b7f50726f706f73616c7320617265206e6f7420616c6c6f77656420796574000000600082015250565b6000612660601d8361230b565b915061266b8261262a565b602082019050919050565b6000602082019050818103600083015261268f81612653565b9050919050565b50565b60006126a660008361230b565b91506126b182612696565b600082019050919050565b600060208201905081810360008301526126d581612699565b9050919050565b600060208201905081810360008301526126f6818461231c565b905092915050565b7f566f7573206e6520706f7576657a20706173206e65207269656e2070726f706f60008201527f7365720000000000000000000000000000000000000000000000000000000000602082015250565b600061275a60238361230b565b9150612765826126fe565b604082019050919050565b600060208201905081810360008301526127898161274d565b9050919050565b7f596f752063616e206e6f7420637265617465206d6f7265207468616e2035207060008201527f726f706f73616c73000000000000000000000000000000000000000000000000602082015250565b60006127ec60288361230b565b91506127f782612790565b604082019050919050565b6000602082019050818103600083015261281b816127df565b9050919050565b600061282d82611d06565b915061283883611d06565b92508282101561284b5761284a61258a565b5b828203905092915050565b7f4f776e61626c653a2063616c6c6572206973206e6f7420746865206f776e6572600082015250565b600061288c60208361230b565b915061289782612856565b602082019050919050565b600060208201905081810360008301526128bb8161287f565b9050919050565b7f43757272656e7420737461747573206973206e6f7420766f74696e672073657360008201527f73696f6e20656e64656400000000000000000000000000000000000000000000602082015250565b600061291e602a8361230b565b9150612929826128c2565b604082019050919050565b6000602082019050818103600083015261294d81612911565b9050919050565b7f546f6f206d616e792070726f706f73616c732c2075736520656d657267656e6360008201527f79537065636966696352616e676554616c6c79566f746573447261772829206960208201527f6e737465616420286e6f7420696d706c656d656e746564290000000000000000604082015250565b60006129d660588361230b565b91506129e182612954565b606082019050919050565b60006020820190508181036000830152612a05816129c9565b9050919050565b7f4e487b7100000000000000000000000000000000000000000000000000000000600052602260045260246000fd5b60006002820490506001821680612a5357607f821691505b602082108103612a6657612a65612a0c565b5b50919050565b6000604082019050612a816000830185612174565b612a8e6020830184612174565b9392505050565b7f566f74657320617265206e6f742074616c6c6965642079657400000000000000600082015250565b6000612acb60198361230b565b9150612ad682612a95565b602082019050919050565b60006020820190508181036000830152612afa81612abe565b9050919050565b7f5265676973746572696e672070726f706f73616c732063616e7420626520737460008201527f6172746564206e6f770000000000000000000000000000000000000000000000602082015250565b6000612b5d60298361230b565b9150612b6882612b01565b604082019050919050565b60006020820190508181036000830152612b8c81612b50565b9050919050565b7f5265676973746572696e672070726f706f73616c7320686176656e742073746160008201527f7274656420796574000000000000000000000000000000000000000000000000602082015250565b6000612bef60288361230b565b9150612bfa82612b93565b604082019050919050565b60006020820190508181036000830152612c1e81612be2565b9050919050565b7f5265676973746572696e672070726f706f73616c73207068617365206973206e60008201527f6f742066696e6973686564000000000000000000000000000000000000000000602082015250565b6000612c81602b8361230b565b9150612c8c82612c25565b604082019050919050565b60006020820190508181036000830152612cb081612c74565b9050919050565b7f4f776e61626c653a206e6577206f776e657220697320746865207a65726f206160008201527f6464726573730000000000000000000000000000000000000000000000000000602082015250565b6000612d1360268361230b565b9150612d1e82612cb7565b604082019050919050565b60006020820190508181036000830152612d4281612d06565b9050919050565b7f566f7465727320726567697374726174696f6e206973206e6f74206f70656e2060008201527f7965740000000000000000000000000000000000000000000000000000000000602082015250565b6000612da560238361230b565b9150612db082612d49565b604082019050919050565b60006020820190508181036000830152612dd481612d98565b9050919050565b7f416c726561647920726567697374657265640000000000000000000000000000600082015250565b6000612e1160128361230b565b9150612e1c82612ddb565b602082019050919050565b60006020820190508181036000830152612e4081612e04565b905091905056fea26469706673582212204d35b530e3c0a57c2111a660e1bfb0750dca322d4916403077deded16d154a7c64736f6c634300080d0033",
  "immutableReferences": {},
  "source": "// SPDX-License-Identifier: MIT\r\n\r\npragma solidity 0.8.13 ;\r\nimport \"../node_modules/@openzeppelin/contracts/access/Ownable.sol\";\r\n\r\n/**\r\n* @title Study voting contract \r\n* @author Decentralized Stef\r\n*/\r\ncontract Voting is Ownable {\r\n\r\n    // arrays for draw, uint for single\r\n    uint[] winningProposalsID;\r\n    Proposal[] winningProposals;\r\n    uint public winningProposalID;\r\n    \r\n    struct Voter {\r\n        bool isRegistered;\r\n        bool hasVoted;\r\n        uint votedProposalId;\r\n        uint proposedProposalCount;\r\n    }\r\n\r\n    struct Proposal {\r\n        string description;\r\n        uint voteCount;\r\n    }\r\n\r\n    enum  WorkflowStatus {\r\n        RegisteringVoters,\r\n        ProposalsRegistrationStarted,\r\n        ProposalsRegistrationEnded,\r\n        VotingSessionStarted,\r\n        VotingSessionEnded,\r\n        VotesTallied\r\n    }\r\n\r\n    WorkflowStatus public workflowStatus;\r\n    Proposal[] public proposalsArray;\r\n    mapping (address => Voter) private voters;\r\n\r\n\r\n    event VoterRegistered(address voterAddress); \r\n    event WorkflowStatusChange(WorkflowStatus previousStatus, WorkflowStatus newStatus);\r\n    event ProposalRegistered(uint proposalId);\r\n    event Voted (address voter, uint proposalId);\r\n\r\n    modifier onlyVoters() {\r\n        require(voters[msg.sender].isRegistered, \"You're not a voter\");\r\n        _;\r\n    }\r\n\r\n    // ::::::::::::: GETTERS ::::::::::::: //\r\n\r\n    /** \r\n    * @dev get Voter infos\r\n    * @dev only voters can interact\r\n    * @param  _addr {address} the voter's address\r\n    * @return Voter\r\n     */\r\n    function getVoter(address _addr) external onlyVoters view returns (Voter memory) {\r\n        return voters[_addr];\r\n    }\r\n    \r\n    /**\r\n     * @dev Get Proposal from its id\r\n     * @param  _id {uint} the proposal id\r\n     * @return Proposal\r\n     */\r\n    function getOneProposal(uint _id) external onlyVoters view returns (Proposal memory) {\r\n        return proposalsArray[_id];\r\n    }\r\n\r\n    /**\r\n     * @dev Get the winning proposal(s) \r\n     * @return Array [Proposals] array of all winning proposal\r\n     */\r\n    function getWinner() external view returns (Proposal[] memory) {\r\n        require(workflowStatus == WorkflowStatus.VotesTallied, 'Votes are not tallied yet');\r\n        return winningProposals;\r\n    }\r\n \r\n    // ::::::::::::: REGISTRATION ::::::::::::: // \r\n\r\n    /**\r\n     * @dev Register a voter\r\n     * @dev only admin can make that transaction\r\n     * @dev emit VoterRegistered event \r\n     * @param _addr {address} the voter's address\r\n     */\r\n    function addVoter(address _addr) public onlyOwner {\r\n        require(workflowStatus == WorkflowStatus.RegisteringVoters, 'Voters registration is not open yet');\r\n        require(voters[_addr].isRegistered != true, 'Already registered');\r\n    \r\n        voters[_addr].isRegistered = true;\r\n        emit VoterRegistered(_addr);\r\n    }\r\n \r\n    /* facultatif\r\n     * function deleteVoter(address _addr) external onlyOwner {\r\n     *   require(workflowStatus == WorkflowStatus.RegisteringVoters, 'Voters registration is not open yet');\r\n     *   require(voters[_addr].isRegistered == true, 'Not registered.');\r\n     *   voters[_addr].isRegistered = false;\r\n     *  emit VoterRegistered(_addr);\r\n    }*/\r\n\r\n    // ::::::::::::: PROPOSAL ::::::::::::: // \r\n    /**\r\n     * @dev Adding a proposal\r\n     * @dev only voters can add proposals\r\n     * @dev emit ProposalRegistered event \r\n     * @param _desc {string} the proposal's description\r\n     */\r\n    function addProposal(string memory _desc) external onlyVoters {\r\n        require(workflowStatus == WorkflowStatus.ProposalsRegistrationStarted, 'Proposals are not allowed yet');\r\n        require(keccak256(abi.encode(_desc)) != keccak256(abi.encode(\"\")), 'Vous ne pouvez pas ne rien proposer'); // facultatif\r\n        require(voters[msg.sender].proposedProposalCount <= 5, 'You can not create more than 5 proposals');\r\n        // voir que desc est different des autres\r\n\r\n        Proposal memory proposal;\r\n        proposal.description = _desc;\r\n        proposalsArray.push(proposal);\r\n        voters[msg.sender].proposedProposalCount++;\r\n        emit ProposalRegistered(proposalsArray.length-1);\r\n    }\r\n\r\n    // ::::::::::::: VOTE ::::::::::::: //\r\n\r\n    /**\r\n    * @dev Vote for a proposal\r\n    * @dev only voters can make that transaction\r\n    * @dev emit Voted event \r\n    * @param _id {uint} Proposal's description\r\n    */\r\n    function setVote( uint _id) external onlyVoters {\r\n        require(workflowStatus == WorkflowStatus.VotingSessionStarted, 'Voting session havent started yet');\r\n        require(voters[msg.sender].hasVoted != true, 'You have already voted');\r\n        require(_id <= proposalsArray.length, 'Proposal not found'); // pas oblig, et pas besoin du >0 car uint\r\n\r\n        voters[msg.sender].votedProposalId = _id;\r\n        voters[msg.sender].hasVoted = true;\r\n        proposalsArray[_id].voteCount++;\r\n\r\n        emit Voted(msg.sender, _id);\r\n    }\r\n\r\n    // ::::::::::::: STATE ::::::::::::: //\r\n\r\n    /* on pourrait factoriser tout a: par exemple:\r\n\r\n    *  modifier checkWorkflowStatus(WorkflowStatus _num) {\r\n    *  require (workflowStatus=_num-1, \"bad workflowstatus\");\r\n    *  _;\r\n    *  }\r\n\r\n    *  function setWorkflowStatus(WorkflowStatus _num) public onlyOwner {\r\n    *    WorkflowStatus pnum = workflowStatus;\r\n    *    workflowStatus = _num;\r\n    *    emit WorkflowStatusChange(pnum, workflowStatus);\r\n        } */ \r\n\r\n    /**\r\n    * @dev Start the proposal registering\r\n    * @dev only admin can make the transaction\r\n    * @dev emit WorkflowStatusChange event \r\n    */\r\n    function startProposalsRegistering() external onlyOwner {\r\n        require(workflowStatus == WorkflowStatus.RegisteringVoters, 'Registering proposals cant be started now');\r\n        workflowStatus = WorkflowStatus.ProposalsRegistrationStarted;\r\n        emit WorkflowStatusChange(WorkflowStatus.RegisteringVoters, WorkflowStatus.ProposalsRegistrationStarted);\r\n    }\r\n\r\n    /**\r\n    * @dev End the proposal registering\r\n    * @dev only admin can make that transaction\r\n    * @dev emit WorkflowStatusChange event \r\n    */\r\n    function endProposalsRegistering() external onlyOwner {\r\n        require(workflowStatus == WorkflowStatus.ProposalsRegistrationStarted, 'Registering proposals havent started yet');\r\n        workflowStatus = WorkflowStatus.ProposalsRegistrationEnded;\r\n        emit WorkflowStatusChange(WorkflowStatus.ProposalsRegistrationStarted, WorkflowStatus.ProposalsRegistrationEnded);\r\n    }\r\n\r\n    /**\r\n    * @dev Start the voting session\r\n    * @dev only admin can make that transaction\r\n    * @dev emit WorkflowStatusChange event \r\n    */\r\n    function startVotingSession() external onlyOwner {\r\n        require(workflowStatus == WorkflowStatus.ProposalsRegistrationEnded, 'Registering proposals phase is not finished');\r\n        workflowStatus = WorkflowStatus.VotingSessionStarted;\r\n        emit WorkflowStatusChange(WorkflowStatus.ProposalsRegistrationEnded, WorkflowStatus.VotingSessionStarted);\r\n    }\r\n\r\n    /**\r\n    * @dev End the voting session\r\n    * @dev only admin can make that transaction\r\n    * @dev emit WorkflowStatusChange event \r\n    */\r\n    function endVotingSession() external onlyOwner {\r\n        require(workflowStatus == WorkflowStatus.VotingSessionStarted, 'Voting session havent started yet');\r\n        workflowStatus = WorkflowStatus.VotingSessionEnded;\r\n        emit WorkflowStatusChange(WorkflowStatus.VotingSessionStarted, WorkflowStatus.VotingSessionEnded);\r\n    }\r\n\r\n    /**\r\n    * @dev Tally the votes\r\n    * @dev only admin can make that transaction\r\n    * @dev emit WorkflowStatusChange event \r\n    */\r\n    function tallyVotesDraw() external onlyOwner {\r\n       require(workflowStatus == WorkflowStatus.VotingSessionEnded, \"Current status is not voting session ended\");\r\n       require(proposalsArray.length < 12000, \"Too many proposals, use emergencySpecificRangeTallyVotesDraw() instead (not implemented)\");\r\n       \r\n        uint highestCount;\r\n        uint[5]memory winners; // egalite entre 5 personnes max\r\n        uint nbWinners;\r\n        for (uint i = 0; i < proposalsArray.length; i++) {\r\n            if (proposalsArray[i].voteCount == highestCount) {\r\n                winners[nbWinners]=i;\r\n                nbWinners++;\r\n            }\r\n            if (proposalsArray[i].voteCount > highestCount) {\r\n                delete winners;\r\n                winners[0]= i;\r\n                highestCount = proposalsArray[i].voteCount;\r\n                nbWinners=1;\r\n            }\r\n        }\r\n        for(uint j=0;j<nbWinners;j++){\r\n            winningProposalsID.push(winners[j]);\r\n            winningProposals.push(proposalsArray[winners[j]]);\r\n        }\r\n        workflowStatus = WorkflowStatus.VotesTallied;\r\n        emit WorkflowStatusChange(WorkflowStatus.VotingSessionEnded, WorkflowStatus.VotesTallied);\r\n    }\r\n\r\n   \r\n\r\n  /*  function tallyVotes() external onlyOwner {\r\n    *    require(workflowStatus == WorkflowStatus.VotingSessionEnded, \"Current status is not voting session ended\");\r\n    *   uint _winningProposalId;\r\n    *  for (uint256 p = 0; p < proposalsArray.length; p++) {\r\n    *       if (proposalsArray[p].voteCount > proposalsArray[_winningProposalId].voteCount) {\r\n    *           _winningProposalId = p;\r\n    *      }\r\n    *   }\r\n    *   winningProposalID = _winningProposalId;\r\n    *   \r\n    *   workflowStatus = WorkflowStatus.VotesTallied;\r\n    *   emit WorkflowStatusChange(WorkflowStatus.VotingSessionEnded, WorkflowStatus.VotesTallied);\r\n    *}\r\n    */\r\n}",
  "sourcePath": "D:\\dev\\Study\\dappVote\\contracts\\Voting.sol",
  "compiler": {
    "name": "solc",
    "version": "0.8.13+commit.abaa5c0e.Emscripten.clang"
  },
  "schemaVersion": "3.4.6",
  "updatedAt": "2022-04-23T21:16:34.979Z",
  "networkType": "ethereum",
  "devdoc": {
    "author": "Decentralized Stef",
    "kind": "dev",
    "methods": {
      "addProposal(string)": {
        "details": "Adding a proposalonly voters can add proposalsemit ProposalRegistered event ",
        "params": {
          "_desc": "{string} the proposal's description"
        }
      },
      "addVoter(address)": {
        "details": "Register a voteronly admin can make that transactionemit VoterRegistered event ",
        "params": {
          "_addr": "{address} the voter's address"
        }
      },
      "endProposalsRegistering()": {
        "details": "End the proposal registeringonly admin can make that transactionemit WorkflowStatusChange event "
      },
      "endVotingSession()": {
        "details": "End the voting sessiononly admin can make that transactionemit WorkflowStatusChange event "
      },
      "getOneProposal(uint256)": {
        "details": "Get Proposal from its id",
        "params": {
          "_id": "{uint} the proposal id"
        },
        "returns": {
          "_0": "Proposal"
        }
      },
      "getVoter(address)": {
        "details": "get Voter infosonly voters can interact",
        "params": {
          "_addr": "{address} the voter's address"
        },
        "returns": {
          "_0": "Voter"
        }
      },
      "getWinner()": {
        "details": "Get the winning proposal(s) ",
        "returns": {
          "_0": "Array [Proposals] array of all winning proposal"
        }
      },
      "owner()": {
        "details": "Returns the address of the current owner."
      },
      "renounceOwnership()": {
        "details": "Leaves the contract without owner. It will not be possible to call `onlyOwner` functions anymore. Can only be called by the current owner. NOTE: Renouncing ownership will leave the contract without an owner, thereby removing any functionality that is only available to the owner."
      },
      "setVote(uint256)": {
        "details": "Vote for a proposalonly voters can make that transactionemit Voted event ",
        "params": {
          "_id": "{uint} Proposal's description"
        }
      },
      "startProposalsRegistering()": {
        "details": "Start the proposal registeringonly admin can make the transactionemit WorkflowStatusChange event "
      },
      "startVotingSession()": {
        "details": "Start the voting sessiononly admin can make that transactionemit WorkflowStatusChange event "
      },
      "tallyVotesDraw()": {
        "details": "Tally the votesonly admin can make that transactionemit WorkflowStatusChange event "
      },
      "transferOwnership(address)": {
        "details": "Transfers ownership of the contract to a new account (`newOwner`). Can only be called by the current owner."
      }
    },
    "title": "Study voting contract ",
    "version": 1
  },
  "userdoc": {
    "kind": "user",
    "methods": {},
    "version": 1
  }
}